{
  "contractName": "StarNotary",
  "abi": [
    {
      "inputs": [],
      "stateMutability": "nonpayable",
      "type": "constructor"
    },
    {
      "anonymous": false,
      "inputs": [
        {
          "indexed": false,
          "internalType": "address",
          "name": "owner",
          "type": "address"
        }
      ],
      "name": "starClaimed",
      "type": "event"
    },
    {
      "inputs": [],
      "name": "starName",
      "outputs": [
        {
          "internalType": "string",
          "name": "",
          "type": "string"
        }
      ],
      "stateMutability": "view",
      "type": "function",
      "constant": true
    },
    {
      "inputs": [],
      "name": "starOwner",
      "outputs": [
        {
          "internalType": "address",
          "name": "",
          "type": "address"
        }
      ],
      "stateMutability": "view",
      "type": "function",
      "constant": true
    },
    {
      "inputs": [],
      "name": "claimStar",
      "outputs": [],
      "stateMutability": "nonpayable",
      "type": "function"
    },
    {
      "inputs": [
        {
          "internalType": "string",
          "name": "name",
          "type": "string"
        }
      ],
      "name": "changeName",
      "outputs": [],
      "stateMutability": "nonpayable",
      "type": "function"
    }
  ],
  "bytecode": "0x608060405234801561001057600080fd5b506040518060400160405280601481526020017f417765736f6d65205564616369747920537461720000000000000000000000008152506000908051906020019061005c929190610062565b50610166565b82805461006e90610105565b90600052602060002090601f01602090048101928261009057600085556100d7565b82601f106100a957805160ff19168380011785556100d7565b828001600101855582156100d7579182015b828111156100d65782518255916020019190600101906100bb565b5b5090506100e491906100e8565b5090565b5b808211156101015760008160009055506001016100e9565b5090565b6000600282049050600182168061011d57607f821691505b6020821081141561013157610130610137565b5b50919050565b7f4e487b7100000000000000000000000000000000000000000000000000000000600052602260045260246000fd5b6105ba806101756000396000f3fe608060405234801561001057600080fd5b506004361061004c5760003560e01c80635353a2d81461005157806388d5896c1461006d578063a434c2721461008b578063c5946ae0146100a9575b600080fd5b61006b60048036038101906100669190610306565b6100b3565b005b6100756100cd565b60405161008291906103aa565b60405180910390f35b61009361015b565b6040516100a0919061038f565b60405180910390f35b6100b1610181565b005b80600090805190602001906100c99291906101fb565b5050565b600080546100da906104b2565b80601f0160208091040260200160405190810160405280929190818152602001828054610106906104b2565b80156101535780601f1061012857610100808354040283529160200191610153565b820191906000526020600020905b81548152906001019060200180831161013657829003601f168201915b505050505081565b600160009054906101000a900473ffffffffffffffffffffffffffffffffffffffff1681565b33600160006101000a81548173ffffffffffffffffffffffffffffffffffffffff021916908373ffffffffffffffffffffffffffffffffffffffff1602179055507feb7b62b344bb3f85b6845f47ddc7878c8fc9946b9c4a4aacbd5274c883e9b66a336040516101f1919061038f565b60405180910390a1565b828054610207906104b2565b90600052602060002090601f0160209004810192826102295760008555610270565b82601f1061024257805160ff1916838001178555610270565b82800160010185558215610270579182015b8281111561026f578251825591602001919060010190610254565b5b50905061027d9190610281565b5090565b5b8082111561029a576000816000905550600101610282565b5090565b60006102b16102ac846103f1565b6103cc565b9050828152602081018484840111156102c957600080fd5b6102d4848285610470565b509392505050565b600082601f8301126102ed57600080fd5b81356102fd84826020860161029e565b91505092915050565b60006020828403121561031857600080fd5b600082013567ffffffffffffffff81111561033257600080fd5b61033e848285016102dc565b91505092915050565b6103508161043e565b82525050565b600061036182610422565b61036b818561042d565b935061037b81856020860161047f565b61038481610573565b840191505092915050565b60006020820190506103a46000830184610347565b92915050565b600060208201905081810360008301526103c48184610356565b905092915050565b60006103d66103e7565b90506103e282826104e4565b919050565b6000604051905090565b600067ffffffffffffffff82111561040c5761040b610544565b5b61041582610573565b9050602081019050919050565b600081519050919050565b600082825260208201905092915050565b600061044982610450565b9050919050565b600073ffffffffffffffffffffffffffffffffffffffff82169050919050565b82818337600083830152505050565b60005b8381101561049d578082015181840152602081019050610482565b838111156104ac576000848401525b50505050565b600060028204905060018216806104ca57607f821691505b602082108114156104de576104dd610515565b5b50919050565b6104ed82610573565b810181811067ffffffffffffffff8211171561050c5761050b610544565b5b80604052505050565b7f4e487b7100000000000000000000000000000000000000000000000000000000600052602260045260246000fd5b7f4e487b7100000000000000000000000000000000000000000000000000000000600052604160045260246000fd5b6000601f19601f830116905091905056fea2646970667358221220c6212ee9a91f196fab514f57004ac3168a495bc2a01fbc16e9a5994f317f2a8264736f6c63430008030033",
  "immutableReferences": {},
  "source": "// SPDX-License-Identifier: MIT\npragma solidity >=0.7.0 <0.9.0;\n\ncontract StarNotary {\n    \n  string public starName;\n  address public starOwner;\n  \n  event starClaimed(address owner);\n\n  constructor() {\n    starName = \"Awesome Udacity Star\";\n  }\n\n  function claimStar() public {\n    starOwner = msg.sender;\n    emit starClaimed(msg.sender);\n  }\n\n  function changeName(string memory name) public {\n    starName = name;\n  }\n    \n}",
  "sourcePath": "/Users/admin/Sheltuh/blockchain/ronin/contracts/StarNotary.sol",
  "compiler": {
    "name": "solc",
    "version": "0.8.3+commit.8d00100c.Emscripten.clang"
  },
  "schemaVersion": "3.4.1",
  "updatedAt": "2021-05-23T22:00:40.798Z",
  "networkType": "ethereum",
  "devdoc": {
    "kind": "dev",
    "methods": {},
    "version": 1
  },
  "userdoc": {
    "kind": "user",
    "methods": {},
    "version": 1
  }
}